{
  "_format": "hh-sol-artifact-1",
  "contractName": "Marketplace",
  "sourceName": "contracts/Marketplace.sol",
  "abi": [
    {
      "inputs": [
        {
          "internalType": "uint256",
          "name": "_feePercent",
          "type": "uint256"
        }
      ],
      "stateMutability": "nonpayable",
      "type": "constructor"
    },
    {
      "inputs": [],
      "name": "ReentrancyGuardReentrantCall",
      "type": "error"
    },
    {
      "anonymous": false,
      "inputs": [
        {
          "indexed": false,
          "internalType": "uint256",
          "name": "itemId",
          "type": "uint256"
        },
        {
          "indexed": true,
          "internalType": "address",
          "name": "nft",
          "type": "address"
        },
        {
          "indexed": false,
          "internalType": "uint256",
          "name": "tokenId",
          "type": "uint256"
        },
        {
          "indexed": false,
          "internalType": "uint256",
          "name": "price",
          "type": "uint256"
        },
        {
          "indexed": true,
          "internalType": "address",
          "name": "seller",
          "type": "address"
        },
        {
          "indexed": true,
          "internalType": "address",
          "name": "buyer",
          "type": "address"
        }
      ],
      "name": "Bought",
      "type": "event"
    },
    {
      "anonymous": false,
      "inputs": [
        {
          "indexed": false,
          "internalType": "uint256",
          "name": "itemId",
          "type": "uint256"
        },
        {
          "indexed": true,
          "internalType": "address",
          "name": "nft",
          "type": "address"
        },
        {
          "indexed": false,
          "internalType": "uint256",
          "name": "tokenId",
          "type": "uint256"
        },
        {
          "indexed": false,
          "internalType": "uint256",
          "name": "price",
          "type": "uint256"
        },
        {
          "indexed": true,
          "internalType": "address",
          "name": "seller",
          "type": "address"
        }
      ],
      "name": "Cancelled",
      "type": "event"
    },
    {
      "anonymous": false,
      "inputs": [
        {
          "indexed": false,
          "internalType": "uint256",
          "name": "itemId",
          "type": "uint256"
        },
        {
          "indexed": true,
          "internalType": "address",
          "name": "nft",
          "type": "address"
        },
        {
          "indexed": false,
          "internalType": "uint256",
          "name": "tokenId",
          "type": "uint256"
        },
        {
          "indexed": false,
          "internalType": "uint256",
          "name": "price",
          "type": "uint256"
        },
        {
          "indexed": true,
          "internalType": "address",
          "name": "seller",
          "type": "address"
        }
      ],
      "name": "Listed",
      "type": "event"
    },
    {
      "inputs": [
        {
          "internalType": "uint256",
          "name": "_itemId",
          "type": "uint256"
        }
      ],
      "name": "cancelListing",
      "outputs": [],
      "stateMutability": "nonpayable",
      "type": "function"
    },
    {
      "inputs": [],
      "name": "feeAccount",
      "outputs": [
        {
          "internalType": "address payable",
          "name": "",
          "type": "address"
        }
      ],
      "stateMutability": "view",
      "type": "function"
    },
    {
      "inputs": [],
      "name": "feePercent",
      "outputs": [
        {
          "internalType": "uint256",
          "name": "",
          "type": "uint256"
        }
      ],
      "stateMutability": "view",
      "type": "function"
    },
    {
      "inputs": [
        {
          "internalType": "uint256",
          "name": "_itemId",
          "type": "uint256"
        }
      ],
      "name": "getItem",
      "outputs": [
        {
          "components": [
            {
              "internalType": "uint256",
              "name": "itemId",
              "type": "uint256"
            },
            {
              "internalType": "contract IERC721",
              "name": "nft",
              "type": "address"
            },
            {
              "internalType": "uint256",
              "name": "tokenId",
              "type": "uint256"
            },
            {
              "internalType": "uint256",
              "name": "price",
              "type": "uint256"
            },
            {
              "internalType": "address payable",
              "name": "seller",
              "type": "address"
            },
            {
              "internalType": "bool",
              "name": "sold",
              "type": "bool"
            }
          ],
          "internalType": "struct Marketplace.Item",
          "name": "",
          "type": "tuple"
        }
      ],
      "stateMutability": "view",
      "type": "function"
    },
    {
      "inputs": [
        {
          "internalType": "uint256",
          "name": "_itemId",
          "type": "uint256"
        }
      ],
      "name": "getTotalPrice",
      "outputs": [
        {
          "internalType": "uint256",
          "name": "",
          "type": "uint256"
        }
      ],
      "stateMutability": "view",
      "type": "function"
    },
    {
      "inputs": [],
      "name": "itemCount",
      "outputs": [
        {
          "internalType": "uint256",
          "name": "",
          "type": "uint256"
        }
      ],
      "stateMutability": "view",
      "type": "function"
    },
    {
      "inputs": [
        {
          "internalType": "uint256",
          "name": "",
          "type": "uint256"
        }
      ],
      "name": "items",
      "outputs": [
        {
          "internalType": "uint256",
          "name": "itemId",
          "type": "uint256"
        },
        {
          "internalType": "contract IERC721",
          "name": "nft",
          "type": "address"
        },
        {
          "internalType": "uint256",
          "name": "tokenId",
          "type": "uint256"
        },
        {
          "internalType": "uint256",
          "name": "price",
          "type": "uint256"
        },
        {
          "internalType": "address payable",
          "name": "seller",
          "type": "address"
        },
        {
          "internalType": "bool",
          "name": "sold",
          "type": "bool"
        }
      ],
      "stateMutability": "view",
      "type": "function"
    },
    {
      "inputs": [
        {
          "internalType": "contract IERC721",
          "name": "_nft",
          "type": "address"
        },
        {
          "internalType": "uint256",
          "name": "_tokenId",
          "type": "uint256"
        },
        {
          "internalType": "uint256",
          "name": "_price",
          "type": "uint256"
        }
      ],
      "name": "listItem",
      "outputs": [],
      "stateMutability": "nonpayable",
      "type": "function"
    },
    {
      "inputs": [
        {
          "internalType": "uint256",
          "name": "_itemId",
          "type": "uint256"
        }
      ],
      "name": "purchaseItem",
      "outputs": [],
      "stateMutability": "payable",
      "type": "function"
    }
  ],
  "bytecode": "0x60c06040523480156200001157600080fd5b5060405162001a2d38038062001a2d8339818101604052810190620000379190620000c2565b60016000819055508060a081815250503373ffffffffffffffffffffffffffffffffffffffff1660808173ffffffffffffffffffffffffffffffffffffffff168152505050620000f4565b600080fd5b6000819050919050565b6200009c8162000087565b8114620000a857600080fd5b50565b600081519050620000bc8162000091565b92915050565b600060208284031215620000db57620000da62000082565b5b6000620000eb84828501620000ab565b91505092915050565b60805160a051611905620001286000396000818161076e0152610b920152600081816107440152610d7601526119056000f3fe6080604052600436106100865760003560e01c80637fd6f15c116100595780637fd6f15c1461014757806389bfd38f14610172578063bfb231d21461019b578063ca7dd375146101dd578063d38ea5bf1461021a57610086565b8063305a67a81461008b5780633129e773146100b457806365e17c9d146100f15780636bfb0d011461011c575b600080fd5b34801561009757600080fd5b506100b260048036038101906100ad919061106a565b610236565b005b3480156100c057600080fd5b506100db60048036038101906100d6919061106a565b610630565b6040516100e891906111dc565b60405180910390f35b3480156100fd57600080fd5b50610106610742565b6040516101139190611206565b60405180910390f35b34801561012857600080fd5b50610131610766565b60405161013e9190611230565b60405180910390f35b34801561015357600080fd5b5061015c61076c565b6040516101699190611230565b60405180910390f35b34801561017e57600080fd5b506101996004803603810190610194919061129b565b610790565b005b3480156101a757600080fd5b506101c260048036038101906101bd919061106a565b610b03565b6040516101d49695949392919061130c565b60405180910390f35b3480156101e957600080fd5b5061020460048036038101906101ff919061106a565b610b8c565b6040516102119190611230565b60405180910390f35b610234600480360381019061022f919061106a565b610bef565b005b61023e610f7b565b60006002600083815260200190815260200160002090506000816000015411801561026b57506001548211155b6102aa576040517f08c379a00000000000000000000000000000000000000000000000000000000081526004016102a1906113ca565b60405180910390fd5b8060040160009054906101000a900473ffffffffffffffffffffffffffffffffffffffff1673ffffffffffffffffffffffffffffffffffffffff163373ffffffffffffffffffffffffffffffffffffffff161461033c576040517f08c379a00000000000000000000000000000000000000000000000000000000081526004016103339061145c565b60405180910390fd5b8060040160149054906101000a900460ff161561038e576040517f08c379a0000000000000000000000000000000000000000000000000000000008152600401610385906114c8565b60405180910390fd5b8060010160009054906101000a900473ffffffffffffffffffffffffffffffffffffffff1673ffffffffffffffffffffffffffffffffffffffff166323b872dd303384600201546040518463ffffffff1660e01b81526004016103f3939291906114f7565b600060405180830381600087803b15801561040d57600080fd5b505af1158015610421573d6000803e3d6000fd5b505050506000816040518060c0016040529081600082015481526020016001820160009054906101000a900473ffffffffffffffffffffffffffffffffffffffff1673ffffffffffffffffffffffffffffffffffffffff1673ffffffffffffffffffffffffffffffffffffffff16815260200160028201548152602001600382015481526020016004820160009054906101000a900473ffffffffffffffffffffffffffffffffffffffff1673ffffffffffffffffffffffffffffffffffffffff1673ffffffffffffffffffffffffffffffffffffffff1681526020016004820160149054906101000a900460ff1615151515815250509050600260008481526020019081526020016000206000808201600090556001820160006101000a81549073ffffffffffffffffffffffffffffffffffffffff0219169055600282016000905560038201600090556004820160006101000a81549073ffffffffffffffffffffffffffffffffffffffff02191690556004820160146101000a81549060ff021916905550503373ffffffffffffffffffffffffffffffffffffffff16816020015173ffffffffffffffffffffffffffffffffffffffff167f8ce6851f9f6341b62577c808b72489c5c051bfbea988cc657c35a613b8d1276783600001518460400151856060015160405161061b9392919061152e565b60405180910390a3505061062d610fc1565b50565b610638610fcb565b600260008381526020019081526020016000206040518060c0016040529081600082015481526020016001820160009054906101000a900473ffffffffffffffffffffffffffffffffffffffff1673ffffffffffffffffffffffffffffffffffffffff1673ffffffffffffffffffffffffffffffffffffffff16815260200160028201548152602001600382015481526020016004820160009054906101000a900473ffffffffffffffffffffffffffffffffffffffff1673ffffffffffffffffffffffffffffffffffffffff1673ffffffffffffffffffffffffffffffffffffffff1681526020016004820160149054906101000a900460ff1615151515815250509050919050565b7f000000000000000000000000000000000000000000000000000000000000000081565b60015481565b7f000000000000000000000000000000000000000000000000000000000000000081565b610798610f7b565b600081116107db576040517f08c379a00000000000000000000000000000000000000000000000000000000081526004016107d2906115b1565b60405180910390fd5b3373ffffffffffffffffffffffffffffffffffffffff168373ffffffffffffffffffffffffffffffffffffffff16636352211e846040518263ffffffff1660e01b815260040161082b9190611230565b602060405180830381865afa158015610848573d6000803e3d6000fd5b505050506040513d601f19601f8201168201806040525081019061086c91906115fd565b73ffffffffffffffffffffffffffffffffffffffff16146108c2576040517f08c379a00000000000000000000000000000000000000000000000000000000081526004016108b99061169c565b60405180910390fd5b600160008154809291906108d5906116eb565b91905055508273ffffffffffffffffffffffffffffffffffffffff166323b872dd3330856040518463ffffffff1660e01b8152600401610917939291906114f7565b600060405180830381600087803b15801561093157600080fd5b505af1158015610945573d6000803e3d6000fd5b505050506040518060c0016040528060015481526020018473ffffffffffffffffffffffffffffffffffffffff1681526020018381526020018281526020013373ffffffffffffffffffffffffffffffffffffffff168152602001600015158152506002600060015481526020019081526020016000206000820151816000015560208201518160010160006101000a81548173ffffffffffffffffffffffffffffffffffffffff021916908373ffffffffffffffffffffffffffffffffffffffff160217905550604082015181600201556060820151816003015560808201518160040160006101000a81548173ffffffffffffffffffffffffffffffffffffffff021916908373ffffffffffffffffffffffffffffffffffffffff16021790555060a08201518160040160146101000a81548160ff0219169083151502179055509050503373ffffffffffffffffffffffffffffffffffffffff168373ffffffffffffffffffffffffffffffffffffffff167f0d770f67a166dfb160ca3991c3a328328d7d3899464a55a6fa63448ceda495236001548585604051610aee9392919061152e565b60405180910390a3610afe610fc1565b505050565b60026020528060005260406000206000915090508060000154908060010160009054906101000a900473ffffffffffffffffffffffffffffffffffffffff16908060020154908060030154908060040160009054906101000a900473ffffffffffffffffffffffffffffffffffffffff16908060040160149054906101000a900460ff16905086565b600060647f00000000000000000000000000000000000000000000000000000000000000006064610bbd9190611733565b6002600085815260200190815260200160002060030154610bde9190611767565b610be891906117d8565b9050919050565b610bf7610f7b565b6000610c0282610b8c565b9050600060026000848152602001908152602001600020905060008160000154118015610c3157506001548311155b610c70576040517f08c379a0000000000000000000000000000000000000000000000000000000008152600401610c67906113ca565b60405180910390fd5b81341015610cb3576040517f08c379a0000000000000000000000000000000000000000000000000000000008152600401610caa9061187b565b60405180910390fd5b8060040160149054906101000a900460ff1615610d05576040517f08c379a0000000000000000000000000000000000000000000000000000000008152600401610cfc906114c8565b60405180910390fd5b8060040160009054906101000a900473ffffffffffffffffffffffffffffffffffffffff1673ffffffffffffffffffffffffffffffffffffffff166108fc82600301549081150290604051600060405180830381858888f19350505050158015610d73573d6000803e3d6000fd5b507f000000000000000000000000000000000000000000000000000000000000000073ffffffffffffffffffffffffffffffffffffffff166108fc826003015484610dbe919061189b565b9081150290604051600060405180830381858888f19350505050158015610de9573d6000803e3d6000fd5b5060018160040160146101000a81548160ff0219169083151502179055508060010160009054906101000a900473ffffffffffffffffffffffffffffffffffffffff1673ffffffffffffffffffffffffffffffffffffffff166323b872dd303384600201546040518463ffffffff1660e01b8152600401610e6c939291906114f7565b600060405180830381600087803b158015610e8657600080fd5b505af1158015610e9a573d6000803e3d6000fd5b505050503373ffffffffffffffffffffffffffffffffffffffff168160040160009054906101000a900473ffffffffffffffffffffffffffffffffffffffff1673ffffffffffffffffffffffffffffffffffffffff168260010160009054906101000a900473ffffffffffffffffffffffffffffffffffffffff1673ffffffffffffffffffffffffffffffffffffffff167f8b4c9c8a607d67b321582dd8461041b1dc2ceeca70c8b7f37f8e02095cf2e76d8685600201548660030154604051610f669392919061152e565b60405180910390a45050610f78610fc1565b50565b600260005403610fb7576040517f3ee5aeb500000000000000000000000000000000000000000000000000000000815260040160405180910390fd5b6002600081905550565b6001600081905550565b6040518060c0016040528060008152602001600073ffffffffffffffffffffffffffffffffffffffff1681526020016000815260200160008152602001600073ffffffffffffffffffffffffffffffffffffffff1681526020016000151581525090565b600080fd5b6000819050919050565b61104781611034565b811461105257600080fd5b50565b6000813590506110648161103e565b92915050565b6000602082840312156110805761107f61102f565b5b600061108e84828501611055565b91505092915050565b6110a081611034565b82525050565b600073ffffffffffffffffffffffffffffffffffffffff82169050919050565b6000819050919050565b60006110eb6110e66110e1846110a6565b6110c6565b6110a6565b9050919050565b60006110fd826110d0565b9050919050565b600061110f826110f2565b9050919050565b61111f81611104565b82525050565b6000611130826110a6565b9050919050565b61114081611125565b82525050565b60008115159050919050565b61115b81611146565b82525050565b60c0820160008201516111776000850182611097565b50602082015161118a6020850182611116565b50604082015161119d6040850182611097565b5060608201516111b06060850182611097565b5060808201516111c36080850182611137565b5060a08201516111d660a0850182611152565b50505050565b600060c0820190506111f16000830184611161565b92915050565b61120081611125565b82525050565b600060208201905061121b60008301846111f7565b92915050565b61122a81611034565b82525050565b60006020820190506112456000830184611221565b92915050565b6000611256826110a6565b9050919050565b60006112688261124b565b9050919050565b6112788161125d565b811461128357600080fd5b50565b6000813590506112958161126f565b92915050565b6000806000606084860312156112b4576112b361102f565b5b60006112c286828701611286565b93505060206112d386828701611055565b92505060406112e486828701611055565b9150509250925092565b6112f781611104565b82525050565b61130681611146565b82525050565b600060c0820190506113216000830189611221565b61132e60208301886112ee565b61133b6040830187611221565b6113486060830186611221565b61135560808301856111f7565b61136260a08301846112fd565b979650505050505050565b600082825260208201905092915050565b7f4974656d20646f6573206e6f7420657869737400000000000000000000000000600082015250565b60006113b460138361136d565b91506113bf8261137e565b602082019050919050565b600060208201905081810360008301526113e3816113a7565b9050919050565b7f596f7520617265206e6f74207468652073656c6c6572206f662074686973206960008201527f74656d0000000000000000000000000000000000000000000000000000000000602082015250565b600061144660238361136d565b9150611451826113ea565b604082019050919050565b6000602082019050818103600083015261147581611439565b9050919050565b7f4974656d20697320616c726561647920736f6c64000000000000000000000000600082015250565b60006114b260148361136d565b91506114bd8261147c565b602082019050919050565b600060208201905081810360008301526114e1816114a5565b9050919050565b6114f18161124b565b82525050565b600060608201905061150c60008301866114e8565b61151960208301856114e8565b6115266040830184611221565b949350505050565b60006060820190506115436000830186611221565b6115506020830185611221565b61155d6040830184611221565b949350505050565b7f5072696365206d7573742062652067726561746572207468616e207a65726f00600082015250565b600061159b601f8361136d565b91506115a682611565565b602082019050919050565b600060208201905081810360008301526115ca8161158e565b9050919050565b6115da8161124b565b81146115e557600080fd5b50565b6000815190506115f7816115d1565b92915050565b6000602082840312156116135761161261102f565b5b6000611621848285016115e8565b91505092915050565b7f596f7520617265206e6f7420746865206f776e6572206f66207468697320746f60008201527f6b656e0000000000000000000000000000000000000000000000000000000000602082015250565b600061168660238361136d565b91506116918261162a565b604082019050919050565b600060208201905081810360008301526116b581611679565b9050919050565b7f4e487b7100000000000000000000000000000000000000000000000000000000600052601160045260246000fd5b60006116f682611034565b91507fffffffffffffffffffffffffffffffffffffffffffffffffffffffffffffffff8203611728576117276116bc565b5b600182019050919050565b600061173e82611034565b915061174983611034565b9250828201905080821115611761576117606116bc565b5b92915050565b600061177282611034565b915061177d83611034565b925082820261178b81611034565b915082820484148315176117a2576117a16116bc565b5b5092915050565b7f4e487b7100000000000000000000000000000000000000000000000000000000600052601260045260246000fd5b60006117e382611034565b91506117ee83611034565b9250826117fe576117fd6117a9565b5b828204905092915050565b7f496e73756666696369656e742066756e647320746f20636f766572206974656d60008201527f20707269636520616e642070657263656e742066656500000000000000000000602082015250565b600061186560368361136d565b915061187082611809565b604082019050919050565b6000602082019050818103600083015261189481611858565b9050919050565b60006118a682611034565b91506118b183611034565b92508282039050818111156118c9576118c86116bc565b5b9291505056fea26469706673582212200d344e8807eb7675b8863b355cbbe9949cfff2a0badd05d616fe6a0ac5bfbbaf64736f6c63430008180033",
  "linkReferences": {},
  "deployedLinkReferences": {}
}